:020000040800F2
:10000000B84C0020010F00087503000877030008B2
:100010007B0300087F030008830300080000000042
:10002000000000000000000000000000F5010008D2
:10003000870300080000000039020008B30B000825
:100040001B0F00081B0F00081B0F0008690B00089E
:100050001B0F00081B0F00081B0F00081B0F0008D8
:100060001B0F00081B0F00081B0F00081B0F0008C8
:100070001B0F00081B0F00081B0F000809060008D3
:100080001B0F00081B0F00081B0F00081B0F0008A8
:100090001B0F00081B0F00081B0F00081B0F000898
:1000A0001B0F00081B0F00081B0F00081B0F000888
:1000B0001B0F00081B0F00081B0F00081B0F000878
:1000C0001B0F00081B0F00081B0F00081B0F000868
:1000D0001B0F00087B0D00081B0F00081B0F0008FA
:1000E0001B0F00081B0F00081B0F00081B0F000848
:1000F0001B0F00081B0F00081B0F00081B0F000838
:100100001B0F00081B0F00081B0F00081B0F000827
:100110001B0F00081B0F00081B0F00081B0F000817
:100120001B0F00081B0F00081B0F00081B0F000807
:1001300000F002F800F04EF80AA090E8000C8244AB
:100140008344AAF10107DA4501D100F043F8AFF288
:10015000090EBAE80F0013F0010F18BFFB1A43F0A5
:1001600001031847C0650000E0650000103A24BF95
:1001700078C878C1FAD8520724BF30C830C144BF0C
:1001800004680C607047000000230024002500264E
:10019000103A28BF78C1FBD8520728BF30C148BFEA
:1001A0000B607047642905F01B86782905F054869A
:1001B000732906F09280002070471FB506F0F4F90D
:1001C00004000020002106F053FA401C60601FBDAF
:1001D00010B510BD06F0C2F91146FFF7EEFF00F0B2
:1001E0008CF806F0F3F903B4FFF7F2FF03BC00F05C
:1001F00063FD0000224B19680868B0E8F00F80F337
:100200000988BFF36F8F4FF0000080F311884EF024
:100210000D0E70470000000006480068006880F37B
:10022000088862B661B6BFF34F8FBFF36F8F00DFF0
:1002300000BF00BF08ED00E0EFF30980BFF36F8F50
:100240000F4B1A6820E9F00F106008B54FF0BF009F
:1002500080F31188BFF34F8FBFF36F8F03F0CDFB97
:100260004FF0000080F31188BDE808401968086865
:10027000B0E8F00F80F30988BFF36F8F704700BFBD
:1002800048000020EFF30580704700001CB50446CD
:1002900005F019F82348032100234FF48072CDE9BB
:1002A000001021A1234802F0DAFF23480221002395
:1002B0004FF42072CDE9001020A1244802F0CFFFB6
:1002C0002348006803F018F805F00CF81CBD10B5C1
:1002D0004FF4407001F0B8FB00F073FC4FF4E130D4
:1002E00000F0F9FC00F040F902E01AA005F01CFD56
:1002F00000F0DBFB0028F8D110BD1CB5FFF7E7FFCD
:1003000017A005F011FD1248012100238022CDE93C
:10031000001015A1AFF28B0002F0A1FF03F058FD11
:1003200000BFFEE7040000205573617274546173CE
:100330006B000000355A00080C000020466C617309
:100340006857726974655461736B0000515B0008F3
:100350000000002077616974205274630D0A000068
:1003600073746172740A000073746172745F7461F3
:10037000736B0000704700BFFEE700BFFEE700BFE1
:10038000FEE700BFFEE770470CB50020019000902B
:100390006C48006840F480306A49086000BF6948D2
:1003A000006800F4003000900198401C0190009813
:1003B00018B90198B0F5A06FF1D16248006800F457
:1003C000003010B10120009001E000200090009862
:1003D000012843D15C48006840F010005A49086089
:1003E0000846006820F0030008600846006840F0F6
:1003F0000200086053484068524948600846406817
:1004000048600846406840F480604860084640689C
:1004100020F47C1048600846406840F4E8104860CA
:100420000846006840F08070086000BF45480068DA
:1004300000F000700028F9D04248406820F0030026
:10044000404948600846406840F00200486000BFEC
:100450003C48406800F00C000828F9D10CBD10B5EC
:10046000FFF792FF10BD10B53648006840F001005C
:1004700034490860084640683449084031494860BA
:1004800008460068324908402E490860084600685E
:1004900020F4802008600846406820F4FE00486090
:1004A0004FF41F008860FFF7DAFF4FF00060294922
:1004B000086010BD10B5002100200022214B5B68B0
:1004C00003F00C0121B1042906D0082928D107E046
:1004D000214B224C236027E01F4B204C236023E05C
:1004E000184B5B6803F47010164B5B6803F48032A2
:1004F000022303EB904022B9194B4343174C23606E
:100500000DE0104B5B6803F4003323B1144B4343FD
:10051000124C236003E0104B4343104C236003E074
:100520000D4B0E4C236000BF00BF064B5B68C3F34E
:1005300003130C4CE15C094B1B68CB40074C236058
:1005400010BD000000100240002002400000FFF833
:10055000FFFFF6FE08ED00E000127A001000002018
:1005600000093D001400002008B50121302001F0F1
:1005700003F84FF40050ADF8000010208DF8030090
:1005800003208DF802006946044800F039FD4FF45D
:100590000051024800F0E1FD08BD000000100140DC
:1005A00070B58CB006460C4615460121084600F091
:1005B000D6FF304601F0B6FA019402950020039070
:1005C0006420049000200590802006900020079071
:1005D000089020200990C0010A9000200B9001A9EA
:1005E000304601F041FB0CB070BD10B5044600214F
:1005F000204601F064FB64210C4801F075FB0121E9
:10060000204601F05CFB10BD10B509A005F08CFB85
:100610004FF4003001F06EFB30B14FF4003001F0C8
:100620007DFB0248FFF7E1FF10BD000058000240CB
:10063000444D41315F4368616E6E656C355F495270
:100640005148616E646C65720D0A00002DE9F0413D
:1006500005460E461746002407E036F814102846D3
:1006600001F0F1FCAD1C601C84B2BC42F5DBBDE8BE
:10067000F0812DE9F04104460F461646A0195C4969
:10068000884207D95B4B28225BA163A005F04CFB95
:10069000BDE8F0816448844206D2564B2D2256A113
:1006A0005DA005F041FBF3E7002504E054F8011BD1
:1006B0007955681C85B2B542F8DB00BFE8E72DE943
:1006C000F04FADF2044D80468B46144699464546A0
:1006D000DA4608EB04004649884209D9534B4022C8
:1006E00045A14DA005F020FB0DF2044DBDE8F08FB3
:1006F0004D48804506D24D4B45223FA146A005F00E
:1007000013FBF1E7C5F30906C6F5806701F053FB5B
:100710003EB3AD1B4FF48062294601A805F0E0FC12
:10072000BC4209DD01A988193A46514605F0D8FCBA
:10073000E01B84B2BA4406E001A98819224651465A
:1007400005F0CEFC0024B9F1000F02D0284601F0DC
:1007500077FB4FF4007201A92846FFF777FF05F5F4
:10076000806534E0B4F5806F19DB4FF48062514648
:1007700001A805F0B5FCB9F1000F02D0284601F040
:100780005FFB4FF4007201A92846FFF75FFF05F5F4
:1007900080650AF5806AA4F5806084B217E04FF4A2
:1007A0008062294601A805F09BFC2246514601A81B
:1007B00005F096FCB9F1000F02D0284601F040FB8D
:1007C0004FF4007201A92846FFF740FF0024002CD7
:1007D000C8DC01F0FCFA00BF86E710B5044601F062
:1007E000EAFA204601F02CFB01F0F1FA10BD0000FE
:1007F000000001089C6600082E2E5C4841524457B8
:100800004152455C53544D464C4153485C73746DA2
:10081000666C6173682E63002D2D2D3E25733A257D
:10082000643A25730000000000A00008A8660008D4
:1008300008B503208DF8000000208DF801008DF828
:10084000020001208DF80300684601F002F908BD9E
:10085000F0B503460C461546642093FBF0F0C6B293
:10086000642093FBF0F700FB1730C1B2132E02DDBA
:1008700001F16400C1B20846CF1701EB977701EB95
:10088000A707BAB2072092FBF0F700FB172082B24D
:100890005719601EDFF8F8C21CF80000384482B215
:1008A000CF1701EB9777BF10A1EB87071FB9032C78
:1008B00001DA501E82B2072092FBF0F700FB1720EE
:1008C000C0B2F0BD0146CA1701EB92729210A1EBC3
:1008D000820292B9642091FBF0F200FB121050B931
:1008E0004FF4C87091FBF0F200FB121008B9012020
:1008F00070470020FCE70120FAE70020F8E770B518
:1009000000260024002501F035FD0646A148B6FB6F
:10091000F0F4A1480088A0423CD09F490C8040F2EE
:10092000B27510E02846FFF7CDFF40B1B4F5B77FB0
:1009300002D3A4F5B77404E0681C85B206E0A4F203
:100940006D14681C85B2B4F5B67FEBD800BF934830
:100950008580002516E091498888FFF7B3FF30B104
:10096000012D04D11D2C01D31D3C09E00CE08C4865
:10097000405DA04203D88A48405D241A00E003E0AD
:10098000681C85B21C2CE6D200BF681C83498871A4
:10099000601CC8717F48B6FBF0F100FB11644FF496
:1009A0006160B4FBF0F07D4908704FF46160B4FB06
:1009B000F0F100FB11403C21B0FBF1F077494870A9
:1009C0004FF46160B4FBF0F100FB11403C21B0FB3F
:1009D000F1F201FB1200714988700B46DA799979BE
:1009E0009888FFF735FF6D490872002070BD2DE92A
:1009F000F05F06460F4690469946DDE90AAB0024B3
:100A000040F2B270864203DB40F63300864202DDDC
:100A10000120BDE8F09F40F2B2750AE02846FFF7DA
:100A200051FF10B15F48044401E05F480444681C72
:100A300085B2B542F2DB781EC7B2002510E05848F7
:100A4000405D40F2A321484304EBC0143046FFF759
:100A500039FF18B1012D01D14E480444681C85B2FC
:100A6000BD42ECDBA8F1010040F2A321484304EBB6
:100A7000C014C9EB4910C0EB092004EB0014CAEB09
:100A80000A1004EB80045C4401214FF0C05000F0D8
:100A900080FD012001F05FFD204601F074FC01F0B3
:100AA000A5FCFFF72CFF0020B3E71CB500240121B3
:100AB0004FF0C05000F06DFD012001F04CFD04200E
:100AC00001F011FD45F2500188423FD001F0D6FC03
:100AD000012000F0BEFC04E0601CC4B20A2000F05B
:100AE000B7F8412000F01DFC0028F5D0FA2C01DBFE
:100AF00001201CBD4FF4807000F0C7FC012000F005
:100B0000CAFC01F073FC01F07AFC0121084601F0F7
:100B100011FC01F06BFC01F01AFC47F6FF7001F0CC
:100B20003FFC01F063FC372000210A230222CDE9BB
:100B300000100C2140F2D970FFF759FF01F010FCB2
:100B400045F25001042001F0C2FC07E001F057FC1F
:100B50000121084601F0EEFB01F048FCFFF768FEBA
:100B6000FFF7CDFE0020C4E710B5012001F06CFCBA
:100B700008B1FFF7C4FE022001F066FC10B10220AC
:100B800001F072FC052001F06FFC01F02FFC10BD9C
:100B9000B5660008805101002400002058010020A3
:100BA000C16600080085E2018033E10170477047AB
:100BB000704710B503F0FDFB012801D004F0A0FB45
:100BC00010BD10B5042000F08EFF3748006837498B
:100BD000B0FBF1F036490870334800683349B0FB88
:100BE000F1F44FF47A7044430120324908804FF009
:100BF000E020006940F002004FF0E0210861084663
:100C00004461006940F00100086110BD70B5034601
:100C100000224FF0E0267569254E367803FB06F476
:100C20004FF0E026B16910E04FF0E026B06988424D
:100C30000BD0884202D20E1A324402E02E1A0E4421
:100C400032440146A24200D300E0EDE700BF70BD90
:100C500070B5044603F0ADFB012811D0154800889B
:100C6000844206DB1348008894FBF0F5284602F026
:100C70009CFD1048008894FBF0F100FB114084B209
:100C80004FF47A7104FB01F0FFF7C0FF70BD30B57F
:100C90000446002504E04FF47A70FFF7B7FF6D1C9F
:100CA000A542F8D330BD00001000002040420F00E4
:100CB0002600002028000020014600BF704700BF2A
:100CC000884A128802F04002002AF9D0C2B2854B4D
:100CD0001B1D1A80704710B586B00446012144F2EE
:100CE000040000F049FC4FF40070ADF8140003203C
:100CF0008DF8160018208DF8170005A97A4800F025
:100D00007FF94FF48060ADF8140004208DF81700CF
:100D100005A9754800F074F925208DF8000003201E
:100D20008DF801008DF8020001208DF8030068465F
:100D300000F08FFE01940020ADF80800ADF80A0025
:100D4000ADF80C00ADF810000C20ADF80E0001A9B4
:100D5000644800F0B8FC002240F22551614800F0E0
:100D60004AFD012240F224415E4800F044FD012189
:100D70005C4800F034FD06B010BD38B540F22441A7
:100D8000584800F01DFE78B15848006828B16A46FE
:100D900000215648006803F001FF52480088C4B2A1
:100DA0005048001D0088C4B238BD10B586B0044656
:100DB0000121480400F0EDFB0121042000F0DCFBE0
:100DC0000420ADF8140003208DF8160018208DF8CB
:100DD000170005A9444800F013F90820ADF81400E5
:100DE00004208DF8170005A93F4800F009F92620D6
:100DF0008DF8000003208DF801008DF8020001201D
:100E00008DF80300684600F024FE01940020ADF840
:100E10000800ADF80A00ADF80C00ADF810000C2089
:100E2000ADF80E0001A9324800F04DFC002240F25E
:100E300025512F4800F0DFFC01212D4800F0CFFCA8
:100E400006B010BD10B52B4800F050FFC0F1640093
:100E500084B229480088A0420FD027480088A042C9
:100E600004DC25480088201A80B210BD04F164001B
:100E700021490988401A80B2F7E70020F5E72DE9FB
:100E8000F04104460F4600261A4800F02FFFC0F13B
:100E9000640085B2642D00DB00251AE01648008846
:100EA000A84215D0144801880088401C124A1080BE
:100EB0001248405C04F8010B10460088642190FB46
:100EC000F1F201FB12000C490880701C86B200E0B0
:100ED00004E0381EA7F101018FB2DFD100BF304618
:100EE000BDE8F08100380140000801400400002006
:100EF000004400405800024030000020F400002070
:100F00000948804709480047FEE7FEE7FEE7FEE79D
:100F1000FEE7FEE7FEE7FEE7FEE7FEE704480549D9
:100F2000054A064B704700006704000831010008BD
:100F3000B8460020B84C0020B8480020B84800202F
:100F400010B50446CC48844208D10121042000F0A9
:100F50002DFB0021042000F029FB46E0C748844215
:100F600008D10121082000F021FB0021082000F019
:100F70001DFB3AE0C248844208D10121102000F054
:100F800015FB0021102000F011FB2EE0BD4884422B
:100F900008D10121202000F009FB0021202000F0D1
:100FA00005FB22E0B848844208D10121402000F02E
:100FB000FDFA0021402000F0F9FA16E0B34884421F
:100FC00008D10121802000F0F1FA0021802000F0FA
:100FD000EDFA0AE0AE48844207D10121801500F005
:100FE000E5FA0021A01500F0E1FA10BD10B50121CD
:100FF000084600F0DBFA0021012000F0D7FA10BD0E
:101000002DE9F0410246002500260020002300249F
:10101000002791F803C00CF00F0591F803C00CF005
:10102000100CBCF1000F03D091F802C04CEA05058A
:1010300091F800C0BCF1000F31D0146800202BE003
:101040004FF0010C0CFA00F3B1F800C00CEA0306F3
:101050009E4220D183004FF00F0C0CFA03F7BC43E3
:1010600005FA03FC4CEA040491F803C0BCF1280F14
:1010700006D14FF0010C0CFA00FCC2F814C00AE0D3
:1010800091F803C0BCF1480F05D14FF0010C0CFAE8
:1010900000FCC2F810C0401C0828D1D31460B1F87D
:1010A00000C0BCF1FF0F34DD546800202EE000F1D9
:1010B000080C4FF0010808FA0CF3B1F800C00CEA74
:1010C00003069E4221D183004FF00F0C0CFA03F768
:1010D000BC4305FA03FC4CEA040491F803C0BCF1DC
:1010E000280F05D100F1080C08FA0CF8C2F814809A
:1010F00091F803C0BCF1480F07D100F1080C4FF084
:10110000010808FA0CF8C2F81080401C0828CED359
:101110005460BDE8F0814FF6FF71018002218170BB
:101120000421C17070470246002093680B400BB148
:10113000012000E0002070470146886880B27047B7
:1011400002460020D3680B400BB1012000E00020D4
:1011500070470146C86880B27047016170474161BD
:1011600070470AB1016100E041617047C16070479A
:101170004FF480320A4382618161826182698269AF
:10118000704702460020434B18684FF680731840A2
:1011900040EA021008433F4B186070473E49C8615F
:1011A0007047F0B50A46002300240021002500F016
:1011B0000046B6F1004F02D1364EF16901E0354EDE
:1011C0007168C0F3034583B200F44016B6F5401FC2
:1011D00008D121F070612F4E766826F070662D4F91
:1011E0007E6012E000F48016B6F5801F06D103265B
:1011F00006FA05F4A14341F0706106E0460D3601A0
:1012000003FA06F6B14341F0706122B1460D360192
:1012100003FA06F6314300F00046B6F1004F02D162
:101220001C4EF16101E01B4E7160F0BD30B5002233
:101230008B071C0F0F2303FA04F2164B08338C1094
:1012400053F824309343134C08348D1044F8253060
:1012500023468C1053F824308C07240F00FA04F432
:1012600023430C4C08348D1044F8253030BD0A4916
:10127000DC3108607047000000080140000C0140AC
:10128000001001400014014000180140001C014002
:10129000002001400000014000002042DF480068BB
:1012A00040F00100DD49086008464068DC4908401C
:1012B000DA49486008460068DA490840D7490860BA
:1012C0000846006820F4802008600846406820F442
:1012D000FE0048604FF41F0088607047CF490968DE
:1012E00021F48031CD4A11601146096821F4802132
:1012F0001160B0F5803F03D0B0F5802F0ED106E02D
:10130000C649096841F48031C44A116007E0C34905
:10131000096841F4A021C14A116000E000BF00BF8C
:10132000704710B501460022002300204A11012A0F
:1013300002D1BA4C236806E0022A02D1B74C236AD4
:1013400001E0B64C636A01F01F02012494401C4086
:101350000CB1012000E0002010BD38B50020009045
:101360000024002500BF3120FFF7DBFF0546009871
:10137000401C00900098B0F5A06F01D0002DF2D075
:101380003120FFF7CEFF08B1012400E00024204601
:1013900038BD01460020A14A106820F0F80040EA5C
:1013A000C10010607047A0490860704702460020E5
:1013B0009A4B586820F47C1042EA01031843974B7B
:1013C0005860704798490866704701460020934A64
:1013D000506820F003000843506070478F48406811
:1013E00000F00C007047014600208C4A506820F045
:1013F000F00008435060704701460020874A50685B
:1014000020F4E06008435060704701460020834AA2
:10141000506820F4605040EAC1005060704729B124
:101420007E4A527A02437D4B5A7204E07B4A527ADA
:1014300082437A4B5A7270477B49D83108607047B3
:1014400001460020754A506820F44040084350602F
:1014500070470021714A20321170704A82F82010C2
:10146000012802D004280AD104E001216B4A20326D
:10147000117005E00521694A2032117000E000BFBB
:1014800000BF70476949086070476449096A0143B1
:10149000624A11627047654944390860704730B547
:1014A00000210022002400235C4D6D6805F00C0132
:1014B00021B1042905D0082923D105E05C4D056040
:1014C00022E05B4D05601FE0544D6D6805F470121D
:1014D000524D6D6805F48034022505EB92421CB92B
:1014E000544D554305600BE04C4D6D6805F40035D7
:1014F0001DB1504D5543056002E04D4D554305600B
:1015000002E04B4D056000BF00BF444D6D6805F023
:10151000F0010909484D6B5C0568DD4045603F4DB1
:101520006D6805F4E061090A434D6B5C4568DD4078
:1015300085603A4D6D6805F46051C90A3E4D6B5C9B
:101540004568DD40C560354D6D6805F44041890B47
:101550003A4D6B5CC568B5FBF3F5056130BD29B14B
:101560002E4A526902432D4B5A6104E02B4A5269BC
:1015700082432A4B5A61704729B1284A9269024333
:10158000264B9A6104E0254A92698243234B9A6173
:10159000704729B1214AD2690243204BDA6104E045
:1015A0001E4AD26982431D4BDA61704729B11B4A3A
:1015B000D2680243194BDA6004E0184AD2688243C9
:1015C000164BDA60704729B1144A12690243134B73
:1015D0001A6104E0114A12698243104B1A61704784
:1015E00012494039086070470F49C86470470B4979
:1015F000C87170470948406A40F0807007494862E6
:10160000704701460020054A92680A400AB101204D
:1016100000E00020704701498872704700100240C6
:101620000000FFF8FFFFF6FE000042428004424245
:1016300000127A0000093D00320000204200002024
:1016400010B50446FB48844209D101218803FFF705
:10165000ADFF00214FF48040FFF7A8FF32E0F648CD
:10166000844209D101214804FFF7ADFF00214FF466
:101670000030FFF7A8FF25E0F048844209D101219E
:101680008804FFF7A0FF00214FF48020FFF79BFFA5
:1016900018E0EB48844209D10121C804FFF793FF09
:1016A00000214FF40020FFF78EFF0BE0E548844255
:1016B00008D101210805FFF786FF00214FF48010B3
:1016C000FFF781FF10BD2DE9F04786B005460E46B5
:1016D0000024A24600BFA1460027B08900B100BF88
:1016E0002F462C8A4CF6FF700440F08804432C826D
:1016F000AC894EF6F3100440B088318908437189F3
:1017000008430443AC81AC8A4FF6FF400440B089E3
:101710000443AC8201A8FFF7C2FEC648874202D14B
:10172000DDF810A001E0DDF80CA0A88900F400406D
:1017300040B10AEBCA0000EB0A1031684900B0FB67
:10174000F1F807E00AEBCA0000EB0A1031688900E3
:10175000B0FBF1F86420B8FBF0F00401200964212B
:1017600001FB1089A88900F4004040B1322000EB51
:10177000C900B0FBF1F000F00700044308E032209C
:1017800000EB09106421B0FBF1F000F00F000443FE
:101790002C8106B0BDE8F0874FF41651016000219E
:1017A0008180C18001810C214181002181817047AC
:1017B00010B502460020108A4FF2FF0318400B8834
:1017C0004C8823438C882343CC88234318431082BE
:1017D00010BD0021018041808180C180704721B10E
:1017E000828942F40052828104E082894DF6FF73BF
:1017F0001A4082817047F0B5034600240026002578
:10180000002040F66A17B94200D100BF1846C1F364
:10181000421401F01F06012707FA06F5012C01D139
:101820000C3004E0022C01D1103000E014301AB169
:1018300007682F43076002E00768AF430760F0BD09
:101840001AB1838A0B43838202E0838A8B438382AB
:101850007047028A4FF6F0731A400282028A0A43E6
:101860000282704782894FF2FF731A408281828917
:101870000A438281704721B1828942F0020282814B
:1018800004E082894FF6FD731A4082817047028A14
:101890004FF6DF731A400282028A0A4302827047BF
:1018A00021B1028A42F48042028204E0028A4BF6AD
:1018B000FF731A4002827047C1F3080282807047AA
:1018C00001468888C0F308007047818941F0010112
:1018D00081817047028BD2B20283028B42EA0122DD
:1018E00002837047028B02F47F420283028B0A4319
:1018F0000283704721B1828A42F02002828204E092
:10190000828A4FF6DF731A408282704721B1828A41
:1019100042F01002828204E0828A4FF6EF731A408E
:101920008282704721B1828A42F00802828204E0FA
:10193000828A4FF6F7731A408282704721B18289FA
:1019400042F40042828103E08289C2F30E02828166
:10195000704721B1828A42F40062828204E0828A66
:101960004FF2FF731A4082827047828A4FF6FB73F0
:101970001A408282828A0A438282704721B1828A17
:1019800042F00202828204E0828A4FF6FD731A401E
:101990008282704702460020B1F5007F00D100BF6F
:1019A00013880B400BB1012000E00020704701F4C8
:1019B0000072B2F5007F00D100BFCA4302807047B9
:1019C00070B50246002400230025002040F66A1668
:1019D000B14200D100BFC1F3421501F01F0301263F
:1019E00006FA03F3012D02D19689334006E0022D59
:1019F00002D1168A334001E0968A33400C12012648
:101A000006FA04F41688344013B10CB1012000E04A
:101A1000002070BD10B50022002340F66A14A142D8
:101A200000D100BF0A1201249440A3B2DC43048019
:101A300010BD000000380140004400400048004054
:101A4000004C00400050004031490143314A1160D0
:101A5000704770B5002100230F22C47804B32D4CC9
:101A6000246804F4E064C4F5E064210AC1F10403CD
:101A7000CA40447804FA03F18478144021430901F0
:101A8000254C0678A155047804F01F050124AC40CC
:101A900005786D11AD0005F1E025C5F8004109E0BC
:101AA000047804F01F050124AC401C4D0678761123
:101AB00045F8264070BD1A4A0A400243154B1B1FC9
:101AC0001A60704739B1134A121D12680243114B54
:101AD0001B1D1A6006E00F4A121D126882430D4B4F
:101AE0001B1D1A607047042808D14FF0E0210969D6
:101AF00041F004014FF0E022116107E04FF0E021D6
:101B0000096921F004014FF0E022116170470000E3
:101B10000000FA050CED00E000E400E080E100E0E8
:101B200080FFFF1F01684FF6FE7211400160002127
:101B3000016041608160C1608D49884208D18C4953
:101B40000839496841F00F01894A083A51608AE032
:101B500087491431884208D185490839496841F0DC
:101B6000F001834A083A51607DE08149283188427A
:101B700008D17F490839496841F470617C4A083AC4
:101B8000516070E07A493C31884208D1784908397F
:101B9000496841F47041764A083A516063E07449FB
:101BA0005031884208D172490839496841F470219E
:101BB0006F4A083A516056E06D496431884208D155
:101BC0006B490839496841F47001694A083A516023
:101BD00049E067497831884208D165490839496840
:101BE00041F07061624A083A51603CE061498842C4
:101BF00006D1011F096841F00F01021F116032E098
:101C00005C491431884208D15A49091F096841F0DA
:101C1000F001584A121F116025E0564928318842C8
:101C200008D15449091F096841F47061514A121FD3
:101C3000116018E04F493C31884208D14D49091FD5
:101C4000096841F470414B4A121F11600BE0494989
:101C50005031884207D14749091F096841F4702172
:101C6000444A121F1160704710B50022026847F6FF
:101C7000F0739A430C6A8B6823430C6923434C69C5
:101C800023438C692343CC6923434C6A23438C6AE6
:101C900023431A430260CB6843600B6883604B6840
:101CA000C36010BD0021016041608160C1600161BD
:101CB00041618161C161016241628162704721B10C
:101CC000026842F00102026004E002684FF6FE730F
:101CD0001A40026070471AB103680B43036002E0C8
:101CE00003688B4303607047416070470146486852
:101CF00080B2704701460020002201F080531BB1E2
:101D00001C4B083B1A6802E0194B083B1A6802EAB0
:101D100001030BB1012000E00020704700F080516A
:101D200019B11449091F086002E0114908394860D7
:101D3000704701460020002201F080531BB10D4B7B
:101D4000083B1A6802E00A4B083B1A6802EA0103E2
:101D50000BB1012000E00020704700F0805119B164
:101D60000449091F086002E00149083948607047CA
:101D7000080002400804024001460020FE4A1068A4
:101D800000F03800084310607047FB49096821F0F3
:101D90000801F94A11601146096801431160704752
:101DA000F549096821F01001F34A116011460968EC
:101DB000014311607047F148EF494860F0484860BE
:101DC0007047EE48EC494860ED4848607047EA4883
:101DD000006940F08000E84908617047E648006902
:101DE00040F08000E449086170470420E249C96876
:101DF00001F0010109B101200EE0DF49C96801F0DD
:101E0000040109B1022007E0DB49C96801F01001B3
:101E100009B1032000E00420704700B50246042306
:101E2000FFF7E3FF034603E0FFF7DFFF0346521E21
:101E3000012B01D1002AF7D102B90523184600BDB4
:101E400030B5044604254FF43020FFF7E6FF054681
:101E5000042D17D1C848006940F00200C649086146
:101E600008464461006940F0400008614FF43020AA
:101E7000FFF7D3FF0546C048006941F6FD710840F1
:101E8000BD490861284630BD10B504244FF4302008
:101E9000FFF7C3FF0446042C16D1B748006940F091
:101EA0000400B54908610846006940F04000086137
:101EB0004FF43020FFF7B1FF0446AF48006941F608
:101EC000FB710840AC490861204610BD00B50246D0
:101ED0000423FFF78AFF034603E0FFF786FF03466C
:101EE000521E012B01D1002AF7D102B90523184651
:101EF00000BD10B504244FF43020FFF7E7FF04467F
:101F0000042C16D19C48006940F004009A490861ED
:101F10000846006940F0400008614FF43020FFF7A8
:101F2000D5FF04469448006941F6FB710840924988
:101F30000861204610BD00208F49C96901F00201E7
:101F400009B1012000E00020704730B5A525042428
:101F5000FFF7F1FF00B100254FF43020FFF75DFFE0
:101F60000446042C3AD185488349886084488860B7
:101F70000846006940F0200008610846006940F00A
:101F8000400008614FF43020FFF747FF0446042C5F
:101F90001BD17948006941F6DF7108407649086134
:101FA0000846006940F01000086176480580E002AC
:101FB000FFF733FF0446052C10D06F48006941F647
:101FC000EF7108406C49086108E0052C06D06A48AA
:101FD000006941F6EF71084067490861204630BD4D
:101FE00078B506460C46042500200090E802FFF76D
:101FF00014FF0546042D24D15F48006940F001001C
:102000005D4908613480E802FFF707FF0546042DAB
:1020100010D1B01C0090200C00990880E802FFF756
:10202000FCFE05465448006941F6FE7108405249DD
:10203000086106E05048006941F6FE7108404E49CB
:102040000861284678BD70B504460D460426F002A6
:10205000FFF7E3FE0646042E11D14748006940F021
:102060000100454908612580F002FFF7D6FE0646CB
:102070004148006941F6FE7108403F490861304619
:1020800070BD70B505460E460424E002FFF7C5FE9C
:102090000446042C17D1394837498860384888608D
:1020A0000846006940F0100008612E80E002FFF74A
:1020B000B4FE0446052C06D02F48006941F6EF71A6
:1020C00008402D490861204670BD2DE9F0430446C3
:1020D0004FF6FF763746B046B1460425E443E6B2F4
:1020E000C4F30727C4F307484FEA1469E802FFF76F
:1020F00094FE0546042D49D120481F498860204898
:1021000088600846006940F010000861FF2E06D084
:102110001C4808300680E802FFF77FFE0546042DC4
:1021200008D1FF2F06D017480A300780E802FFF7D2
:1021300074FE0546042D0AD1B8F1FF0F07D01148EF
:102140000C30A0F80080E802FFF767FE0546042D7A
:102150000AD1B9F1FF0F07D00A480E30A0F800905D
:10216000E802FFF75AFE0546052D0FD00248006928
:1021700041F6EF71084007E0002002402301674567
:10218000AB89EFCD00F8FF1F664908612846BDE81E
:10219000F08330B5054604244FF43020FFF73DFEB0
:1021A0000446042C41D160485E4988605F488860DD
:1021B0000846006940F0200008610846006940F0C8
:1021C000400008614FF43020FFF727FE0446042C3E
:1021D00022D15448006941F6DF7108405149086135
:1021E0000846006940F0100008611DB10020504908
:1021F000088002E0A5204E4908804FF43020FFF708
:102200000CFE0446052C10D04648006941F6EF71DB
:1022100008404449086108E0052C06D0414800699F
:1022200041F6DF7108403F490861204630BDF0B5F6
:1022300005460E46174604243B483A4988603B4809
:102240008860E002FFF7E9FD0446042C19D1354807
:10225000006940F010003349086147F0F80030434E
:1022600028433349891C0880E002FFF7D6FD044665
:10227000052C06D02B48006941F6EF71084029492A
:1022800008612046F0BD2748C0698008704725488E
:10229000006A704700202349096801F0200109B154
:1022A000012000E00020704729B11E4A1269024354
:1022B0001C4B1A6104E01B4A12698243194B1A61D4
:1022C000704701460020012908D1164AD26902F060
:1022D00001020AB1012008E0002006E0114AD2689C
:1022E0000A400AB1012000E0002070470D49C86093
:1022F000704704200B49C96801F0010109B10120B0
:102300000EE00849C96801F0040109B1022007E0A4
:102310000449C96801F0100109B1032000E004205C
:10232000704700000020024023016745AB89EFCDD4
:1023300000F8FF1F29B1504A128802434E4B1A8001
:1023400004E04D4A128882434B4B1A8070474A483A
:10235000001D008840F010004749091D08807047A3
:102360004548001D00884FF6EF7108404249091D9D
:1023700008807047002140481C300188001F0088F9
:1023800041EA0040704700B50246FFF7E0FF100C3D
:10239000394918310880091D0A80FFF7E1FF00BDA7
:1023A00000B50246FFF7D3FFC2F3034032490831BC
:1023B0000880091D0A80FFF7D3FF00BD00B5024663
:1023C000FFF7C5FF100C2C4920310880091D0A8039
:1023D000FFF7C6FF00BD0020274910310988090713
:1023E000080B2549143109880843704700BF22486B
:1023F000001D008800F020000028F8D070471E481B
:10240000001D00884FF6F77108401B49091D088020
:1024100000BF1948001D008800F008000028F8D00F
:10242000704701460020144A121D12880A400AB162
:10243000012000E0002070470F49091D09888143F1
:102440000D4A121D11807047014600200A4A121DD4
:1024500012880A40D0B2084A12880A4012B108B164
:10246000012000E0002070470349091D09888143CD
:10247000014A121D118070470028004010B501204C
:10248000FFF7AEF80020FFF7ABF810BD2A4908604F
:1024900070472949091F086070472749843108603F
:1024A000704701460020254A10884FF67F421040B1
:1024B0000843224A10807047014600201F4A1088B6
:1024C0004FF68072104008431C4A1080704708B5D0
:1024D00000220092194A2C3A0092009A024400927B
:1024E000009A116008BD08B501460020009013480D
:1024F0002C3800900098084400900098008808BD8F
:102500000D489C300068C0B270470C480830008805
:1025100040F0010009490831088070470648A030A2
:102520000068C0B2704705480830008840F00200DB
:10253000024908310880704704860D422C6C004027
:1025400010B501210807FFF73EF800214FF0805039
:10255000FFF739F810BD2A49086270472849086119
:10256000704701460020274A106820F0E000084329
:10257000106070472249A0310860704710B50246CC
:102580000020204B186820F00300104318601E4BF9
:102590001B6843F004031C4C2360012901D130BFA8
:1025A00000E020BF184B1B6823F00403164C236087
:1025B00010BD1448006840F0040012490860084645
:1025C000006840F0020008600F48006840F0040016
:1025D0000D49086000BF00BF30BF704701460020B2
:1025E000084A52680A400AB1012000E00020704702
:1025F0000449096841EA8001024A116070470000FD
:1026000000000E420070004010ED00E000F10801F3
:1026100041604FF0FF31816000F10801C16001614C
:1026200000210160704700210161704742684A60E3
:1026300093688B60936859609160086103685B1CC4
:102640000360704710B502460B685C1C0CB910693A
:1026500007E002F1080000E04068446824689C42FA
:10266000FAD944684C604C68A160886041600A6196
:102670001468641C146010BD01460A69D1E9013078
:102680009860D1E9010358605068884201D1886898
:102690005060002008611068401E1060106870478C
:1026A0002DE9F04105460E4601272C46002C41D06D
:1026B000E06B00283ED0B91EE06BB1FBF0F0216C5E
:1026C000884237D302F0FFFDD4E90F12206801FBE6
:1026D0000200A0600020A06320686060E06B401EE4
:1026E000226C216800FB0211E160FF2084F84400A5
:1026F00084F845009EB9206908B9012000E0002057
:10270000A8B904F1100001F0E4FC80B14FF0805052
:10271000FE490860BFF34F8FBFF36F8F07E004F1EE
:102720001000FFF773FF04F12400FFF76FFF02F0C2
:10273000D9FD00E000273846BDE8F0812DE9F041E1
:1027400006460D4617469846069C0DB9246000E0E3
:102750002760E663256401212046FFF7A1FF84F886
:102760004C80BDE8F0812DE9F84304460E4617463B
:102770000025DCB1681EB0FBF4F0B04216D304FBB8
:1027800006F010F1510F11D804FB06F909F15000C1
:1027900002F0DDFE05464DB1A84608F150083B4663
:1027A0004246314620460095FFF7C8FF2846BDE85F
:1027B000F88370B5044602F086FD94F9455010E0A8
:1027C000606A08B9012000E0002038B904F1240053
:1027D00001F07FFC18B101F0C0FD00E003E0681ECD
:1027E00045B2002DECDC00BFFF2084F8450002F06C
:1027F00079FD02F068FD94F9445010E0206908B9B1
:10280000012000E0002048B904F1100001F061FC53
:1028100008B101F0A2FD681E45B200E001E0002D04
:10282000ECDC00BFFF2084F8440002F05BFD70BDCB
:1028300070B5054602F047FDA86BE96B884201D1EF
:10284000012400E0002402F04DFD204670BD2DE97A
:10285000F04104460F4615464FF00008A66B206C69
:1028600048B9206800282CD1A06801F01EFE8046DF
:102870000020A06025E07DB93946226C606803F035
:102880002FFC216C606808446060D4E90101884233
:1028900017D32068606014E03946226CE06803F0CA
:1028A0001FFC216CE068411AE1602168E068884201
:1028B00003D2216CA068411AE160022D01D106B15A
:1028C000761E701CA0634046BDE8F0812DE9FF43F1
:1028D00083B0074688461D464FF000093C4600BFBE
:1028E00002F0F1FCA06BE16B884201D3022D28D1EC
:1028F0002A4641462046FFF7AAFF0646606A08B905
:10290000012000E0002068B904F1240001F0E1FB9F
:1029100088B14FF080507D490860BFF34F8FBFF3FF
:102920006F8F08E03EB14FF0805078490860BFF3E8
:102930004F8FBFF36F8F02F0D5FC012007B0BDE8C9
:10294000F083059818B902F0CDFC0020F6E7B9F144
:10295000000F04D101A801F0CDFC4FF0010902F0F5
:10296000C1FC00F0E6FE02F0AEFC94F94400401C0D
:1029700010B9002084F8440094F94500401C10B9B7
:10298000002084F8450002F0ADFC05A901A801F083
:10299000B8FCF0B92046FFF74BFFA0B104F11000DE
:1029A000059901F040FB2046FFF703FF00F0D4FD3E
:1029B000002895D14FF0805054490860BFF34F8FE5
:1029C000BFF36F8F8CE72046FFF7F3FE00F0C4FDE6
:1029D00086E72046FFF7EDFE00F0BEFD0020ADE7E4
:1029E00010B5044654B10020A06020600021E160D1
:1029F00000231A4619462046FFF768FF10BD2DE94F
:102A0000F041044601260027224600210120FFF75D
:102A1000AAFE05462846FFF7E3FF2846BDE8F081F9
:102A200070B505462C4601F0C1FCA16888420CD166
:102A3000E068401EE060E06828B900231A461946A5
:102A40002046FFF743FF012600E00026304670BD18
:102A500001464A6A22B10A6B1268C2F1050000E021
:102A60000020704770B5054602F02DFCA86B08B930
:102A7000012400E0002402F035FC204670BD2DE961
:102A8000F34182B0054600272C46B84600BF02F04D
:102A90001AFCA66BFEB1701EA063206810B901F08D
:102AA00043FEA060206908B9012000E0002060B961
:102AB00004F1100001F00DFB38B14FF080501349C4
:102AC0000860BFF34F8FBFF36F8F02F00BFC012044
:102AD00004B0BDE8F081039818B902F003FC0020AF
:102AE000F6E71FB9684601F005FC012702F0FAFB82
:102AF00000F01FFE02F0E7FB94F94400401C10B9FF
:102B0000002084F8440094F9450001E004ED00E061
:102B1000401C10B9002084F8450002F0E3FB03A933
:102B2000684601F0EEFB40BB2046FFF79BFFF0B18B
:102B3000206838B902F0C7FBA06801F046FC804667
:102B400002F0D0FB04F12400039901F06CFA204656
:102B5000FFF72FFE00F000FD002898D14FF08050C5
:102B6000FE490860BFF34F8FBFF36F8F8FE720469A
:102B7000FFF71FFE00F0F0FC89E72046FFF719FE83
:102B800000F0EAFC2046FFF76DFF0028EED0B8F118
:102B9000000F0BD002F097FB2046FFF759FF0646C7
:102BA0003146A06801F0D2FC02F09CFB00208FE7C8
:102BB0002DE9F04106460F46344601F0F7FBA168C7
:102BC000884204D1E068401CE060012508E03946F5
:102BD0002046FFF754FF054615B1E068401CE06051
:102BE0002846BDE8F0812DE9F84F05468A4616468D
:102BF0001F462C4600BFBF21EFF3118081F31188DF
:102C0000BFF34F8FBFF36F8F00BF8146A06BE16BA7
:102C1000884201D3022F22D194F945B0A06B0090D5
:102C20003A4651462046FFF712FE0BF1010070B9FB
:102C3000606A08B9012000E0002038B904F12400DE
:102C400001F047FA10B10EB10120306004E00BF141
:102C5000010040B284F845004FF0010801E04FF058
:102C6000000800BF89F3118800BF4046BDE8F88F17
:102C70002DE9F04705460E462C4600BFBF21EFF375
:102C8000118081F31188BFF34F8FBFF36F8F00BFA7
:102C90008046D4F83890E06B48451DD994F945A09A
:102CA00009F10100A0630AF1010070B9606A08B976
:102CB000012000E0002068B904F1240001F009FAC5
:102CC00040B13EB10120306004E00AF1010040B2A1
:102CD00084F84500012700E0002700BF88F3118831
:102CE00000BF3846BDE8F08770B504460D46206C3D
:102CF00070B1216CE0680144E160D4E902108842BF
:102D000001D32168E1602846226CE16803F0E8F90C
:102D100070BD2DE9F74183B005460F464FF000081E
:102D20002C4600BF02F0CFFAA66BF6B1394620461A
:102D3000FFF7DAFF701EA063206908B9012000E0E8
:102D4000002060B904F1100001F0C3F938B14FF070
:102D5000805082490860BFF34F8FBFF36F8F02F03E
:102D6000C1FA012006B0BDE8F081059818B902F05B
:102D7000B9FA0020F6E7B8F1000F04D101A801F07C
:102D8000B9FA4FF0010802F0ADFA00F0D2FC02F0FF
:102D90009AFA94F94400401C10B9002084F84400C9
:102DA00094F94500401C10B9002084F8450002F059
:102DB00099FA05A901A801F0A4FAF0B92046FFF795
:102DC00051FEA0B104F12400059901F02CF9204630
:102DD000FFF7EFFC00F0C0FB0028A3D14FF08050BC
:102DE0005E490860BFF34F8FBFF36F8F9AE72046AD
:102DF000FFF7DFFC00F0B0FB94E72046FFF7D9FCBB
:102E000000F0AAFB2046FFF72DFE00288AD0002004
:102E1000A8E72DE9F74382B005460F464FF00008BA
:102E20002C4600BF02F04FFAD4F83890B9F1000FE9
:102E30001ED0E66839462046FFF756FFE660606A16
:102E400008B9012000E0002060B904F1240001F07D
:102E500040F938B14FF0805040490860BFF34F8FC0
:102E6000BFF36F8F02F03EFA012005B0BDE8F0839A
:102E7000049818B902F036FA0020F6E7B8F1000F0E
:102E800004D1684601F036FA4FF0010802F02AFA40
:102E900000F04FFC02F017FA94F94400401C10B9FE
:102EA000002084F8440094F94500401C10B900202B
:102EB00084F8450002F016FA04A9684601F021FAE8
:102EC000F0B92046FFF7CEFDA0B104F1240004992B
:102ED00001F0A9F82046FFF76CFC00F03DFB00284C
:102EE000A0D14FF080501D490860BFF34F8FBFF352
:102EF0006F8F97E72046FFF75CFC00F02DFB91E712
:102F00002046FFF756FC00F027FB2046FFF7AAFDFE
:102F1000002887D00020A8E72DE9F05F05468A4603
:102F200016462C4600BFBF21EFF3118081F31188B4
:102F3000BFF34F8FBFF36F8F00BF8046D4F8389038
:102F4000B9F1000F25D094F944B051462046FFF75F
:102F5000CBFEA9F10100A06302E0000004ED00E057
:102F60000BF1010070B9206908B9012000E00020D0
:102F700068B904F1100001F0ACF840B13EB1012095
:102F8000306004E00BF1010040B284F844000127F6
:102F900000E0002700BF88F3118800BF3846BDE875
:102FA000F09F2DE9F047054689462C4600BFBF211A
:102FB000EFF3118081F31188BFF34F8FBFF36F8F51
:102FC00000BF0746A06B48B1D4F80C8049462046A4
:102FD000FFF78AFEC4F80C80012600E0002600BF3F
:102FE00087F3118800BF3046BDE8F08770B504460E
:102FF00002F069F9A56B02F075F9284670BD70B54D
:103000000446254602F05FF9D5E90E10461A02F093
:1030100069F9304670BD01460A46906B704770B53D
:1030200004462546284602F004FB70BD0146886C24
:10303000704781647047014691F84C007047014623
:103040000A46936B0BB9012000E00020704710B5D1
:1030500001460A46936BD46BA34201D1012000E0E4
:10306000002010BD2DE9F04105460E4617462C46BE
:1030700002F029F994F94400401C10B9002084F8AA
:10308000440094F94500401C10B9002084F8450024
:1030900002F028F9A06B28B93A46314604F1240021
:1030A00000F0F4FF2046FFF784FBBDE8F08100004C
:1030B00010B5002407E004EB8401FE4A02EB810016
:1030C000FFF7A4FA641C052CF5D3FB48FFF79EFA22
:1030D000FA48FFF79BFAFA48FFF798FAF948FFF722
:1030E00095FAF948FFF792FAF348F8490860F3486F
:1030F000F749086010BD10B5044602F0E4F8F54841
:103100000068401CF3490860F348006840B9F24881
:1031100004600846006801280DD1FFF7C9FF0AE0E6
:10312000EE48006838B9EC480068C06AE16A884235
:1031300001D8E9480460EA480068401CE849086092
:1031400008460068606494F82C1001208840E54926
:1031500009680843E3490860E16A01EB8101D54A47
:1031600002EB81014868A0608268E260211D8268EC
:1031700051608160E16A01EB8101CE4A02EB81027C
:103180006261E16A01EB8101CA4A52F82110491CCF
:10319000E26A02EB8202C74B43F8221002F0A2F867
:1031A000CE48006868B1CC480068C06AE16A8842CD
:1031B00007D24FF08050CC490860BFF34F8FBFF368
:1031C0006F8F10BD2DE9F05F81460E4690469A46FE
:1031D0000A9F0C9C4FEA8801A522206B03F002F89D
:1031E000A8F10100216B01EB800B2BF0070B86B1DE
:1031F000002507E0715D04F134004155705D00B9B0
:1032000002E06D1C102DF5D300BF002143200155B5
:1032100002E0002084F83400052F00D30427E76281
:10322000E76400202065201DFFF7FDF904F1180078
:10323000FFF7F9F92461C7F10500A061646200207D
:10324000606584F8580052464946584601F0FDFF33
:1032500020600B9808B10B980460BDE8F09F2DE941
:10326000FF4F85B0804689461746DDE912ABB800AE
:1032700002F06DF9064656B15C2002F068F904468A
:103280000CB1266304E0304602F0D3F900E00024DC
:103290007CB10020CDE900ABCDE902403A46494679
:1032A0004046089BFFF78EFF2046FFF724FF0125CD
:1032B00001E04FF0FF35284609B0BDE8F08F10B5AA
:1032C0000446206B02F0B5F9204602F0B2F910BDB9
:1032D0007E480068006808B9012000E0002020B1A5
:1032E0004FF0FF308149086005E078480068C06809
:1032F00000687E490860704770B5054601F0E3FF3D
:1033000015B97548006800E028460446201DFFF7FF
:10331000B3F978B9E06A00EB8000664951F8200003
:1033200040B994F82C10012088406E490968814307
:103330006C480160A06A18B104F11800FFF79CF90D
:1033400067480068401C664908606348006884421A
:1033500009D1211D5B48FFF769F965480068401CE9
:103360006349086006E05B480068401E59490860F0
:10337000FFF7AEFF01F0B6FF57480068844202D065
:103380002046FFF79CFF5548006858B15248006836
:10339000844207D14FF0805053490860BFF34F8FEC
:1033A000BFF36F8F70BD2DE9F041002751480068D1
:1033B00000287DD150480068451C4F4805608DB9F4
:1033C0004248D0F8008042480068404908604048C0
:1033D000C0F8008049480068401C48490860FFF771
:1033E00077FF00BF41480068854262D300BF37487D
:1033F0000068006808B9012000E0002020B14FF00B
:10340000FF303A4908608EE030480068C068C46800
:103410006668B54202D23548066084E06069D4E946
:1034200002128A60D4E902214A60211D42688A4260
:1034300001D1E1684160002262610168491E0160BA
:10344000A06A98B1A06AD4E907128A60D4E907217A
:103450004A6004F1180142688A4201D1216A416040
:103460000022A2620168491E016000BF94F82C107E
:10347000012088401B49096808431A490860E16A2D
:1034800001EB81010B4A02EB81014868A060826870
:10349000E260211D826851608160E16A01EB810177
:1034A000044A02EB81026261E16A01EB810127E0DB
:1034B0004AE039E064010020C8010020DC0100205E
:1034C000F001002004020020180200204C0000201F
:1034D0005000002058000020480000206400002018
:1034E000740000206000002004ED00E0780000205F
:1034F00054000020840000205C00002070000020A8
:10350000F94A52F82110491CE26A02EB8202F64B9A
:1035100043F82210F549E06A0968C96A8842FFF455
:1035200066AF012763E700BFF0480068C06A00EBA0
:103530008000ED4951F82000012800D90127EC480E
:10354000006800B1012704E0EA480068401CE9492E
:1035500008603846BDE8F08170B50024002601F00F
:10356000B2FEE5480068401EE3490860084600686E
:1035700000287DD1E1480068002879D05BE0E04870
:10358000C068C468A06AD4E907128A60D4E9072138
:103590004A6004F1180142688A4201D1216A4160FF
:1035A0000022A2620168491E01606069D4E902122A
:1035B0008A60D4E902214A60211D42688A4201D111
:1035C000E1684160002262610168491E016094F86F
:1035D0002C1001208840CB4909680843C94908607C
:1035E000E16A01EB8101C04A02EB81014868A060F9
:1035F0008268E260211D826851608160E16A01EBAE
:103600008101B94A02EB81026261E16A01EB810149
:10361000B54A52F82110491CE26A02EB8202B24B11
:1036200043F82210B149E06A0968C96A884202D3A6
:103630000120AF490860B248006808B9012000E0E5
:10364000002000289BD00CB1FFF742FEA948056876
:1036500065B100BFFFF7A7FE10B10120A4490860C3
:103660006D1E002DF6D10020A2490860A04800E0A0
:1036700009E0006838B101263007A3490860BFF3AC
:103680004F8FBFF36F8F01F02DFE304670BD2DE9D7
:10369000F04105460E469D48076894480068001DA5
:1036A000FEF7EAFF50B99148006890F82C1001200D
:1036B000884094490968814392480160681CD8B9E0
:1036C000D6B1934948688949096888608749826802
:1036D0000968CA6085490968091D82685160834983
:1036E0000968091D81608A4A804909684A61114652
:1036F0000968491C11601AE07C197C480068446024
:10370000BC4207D279480168091D82480068FEF76B
:1037100099FF0CE075480168091D7F480068FEF7B5
:1037200091FF7E480068844201D27C480460BDE875
:10373000F08171480068401C6F49086070472DE9AE
:10374000F047044688464FF00009FFF7F2FF6F4844
:103750000668206800EB08052068B04207D9206899
:10376000A8420BD9B54209D94FF0010906E02068FB
:10377000A84201D8B54201D94FF001092560B9F13D
:10378000000F03D0A81B0021FFF781FFFFF7E4FE25
:1037900007463FB94FF080505B490860BFF34F8F39
:1037A000BFF36F8F4846BDE8F08770B5044600252B
:1037B00044B1FFF7BEFF00212046FFF768FFFFF787
:1037C000CBFE05463DB94FF080504F490860BFF32E
:1037D0004F8FBFF36F8F70BD2DE9F04707463E4610
:1037E00042480068864201D100242DE001F06BFDC3
:1037F00075694948D0F800804648D0F8009001F03B
:1038000071FD454501D04D4501D102241CE04048E1
:10381000854212D1B06A70B90324002007E006F196
:103820005801095C012901D1022402E0401C012851
:10383000F5DB00BF08E0022406E03948854200D0ED
:103840000DB9042400E001242046BDE8F08770B5DE
:10385000044601F038FD14B92448006800E0204611
:103860000646F56A01F03EFD284670BD70B5024679
:1038700000BFBF25EFF3118485F31188BFF34F8F8D
:10388000BFF36F8F00BF214612B9184C246800E0C7
:1038900014462346D86A00BF81F3118800BF70BD6B
:1038A0002DE9F04780460D464FF00009052D00D365
:1038B000042501F008FDB8F1000F02D10B480068A3
:1038C00000E040460446E66CAE427DD0B54229D9C0
:1038D0000648006884422BD004480068C06AA842A9
:1038E00026D84FF0010923E06401002048000020A1
:1038F0006C00002068000020840000205800002098
:10390000F00100206000002004ED00E05C000020D9
:1039100018020020500000204C00002078000020F9
:1039200004020020FE480068844201D14FF00109E2
:10393000E76AE16AE06C884200D1E562E564A0696B
:1039400000F0004010B9C5F10500A06107EB870148
:10395000F44A02EB81016069884201D1012000E054
:10396000002090B3201DFEF787FE30B90120B8403B
:10397000ED4909688143EC48016094F82C1001205E
:103980008840E94909680843E7490860E16A01EBB2
:103990008101E44A02EB81014868A0608268E2602C
:1039A000211D826851608160E16A01EB8101DD4A7D
:1039B00002EB81026261E16A01EB8101D94A52F8AE
:1039C0002110491CE26A01E012E005E002EB8202EC
:1039D000D44B43F8221000BFB9F1000F07D04FF0CD
:1039E0008050D2490860BFF34F8FBFF36F8F00BF85
:1039F00001F078FCBDE8F087704700B5CC4800685E
:103A000018B10120CB4908602BE00020C9490860AB
:103A1000C34800680068C2490968096B884205D834
:103A2000BF48016834310068FFF7E6FFBE48006810
:103A3000B0FA80F0C0F11F0101EB8102B94B03EB3A
:103A4000820042685268426000F108024368934273
:103A500002D14268526842604268D268B04B1A6034
:103A600000BF00BD70B5054601F02DFC15B9AC488E
:103A7000006800E028460446201DFEF7FDFD78B9E9
:103A8000E06A00EB8000A74951F8200040B994F8A3
:103A90002C1001208840A44909688143A248016094
:103AA000A06A18B104F11800FEF7E6FD211DA24836
:103AB000FEF7BCFD002009E004F15801095C012972
:103AC00003D1002204F158010A54401C0128F3DB01
:103AD00001F008FC9948006828B101F0F4FBFFF7F9
:103AE000F7FB01F0FFFB8E480068844217D1934832
:103AF000006840B14FF080508C490860BFF34F8F91
:103B0000BFF36F8F0BE08C4800688D4909688842CD
:103B100003D100208249086001E0FFF76EFF70BD0D
:103B200010B5014600200A46834C5369A34201D1D7
:103B3000012300E0002373B1824C936AA34201D1B8
:103B4000012300E0002333B9936A0BB9012300E09D
:103B5000002303B1012010BD70B505462C46704806
:103B60000068844245D0002C43D001F0ACFB2046D5
:103B7000FFF7D6FFD8B3201DFEF77EFD94F82C107A
:103B80000120884068490968084367490860E16A7C
:103B900001EB8101634A02EB81014868A060826801
:103BA000E260211D826851608160E16A01EB810160
:103BB0005C4A02EB81026261E16A01EB8101594AD0
:103BC00052F82110491CE26A02EB8202554B43F87D
:103BD00022105349E06A0968C96A884207D34FF046
:103BE000805052490860BFF34F8FBFF36F8F01F0D1
:103BF00079FB70BD2DE9F04106460027344600BF31
:103C0000BF21EFF3118081F31188BFF34F8FBFF312
:103C10006F8F00BF05462046FFF782FF002841D086
:103C200043480068002838D13D49E06A0968C96AFC
:103C3000884203D3012701203E490860201DFEF77A
:103C40001BFD94F82C10012088403749096808436F
:103C500035490860E16A01EB8101324A02EB8101DA
:103C60004868A0608268E260211D826851608160BE
:103C7000E16A01EB81012B4A02EB81026261E16A98
:103C800001EB8101274A52F82110491CE26A02EB3C
:103C90008202244B43F8221004E004F11801294861
:103CA000FEF7C4FC00BF85F3118800BF3846BDE8AD
:103CB000F081002101221C4B1B68012B00D901213E
:103CC000174A1268D26A0AB100200DE0154A12683C
:103CD000012A01D9002007E009B1002004E01A4AB6
:103CE00012681A4B1B68D01A704710B516E001F025
:103CF000EAFA1748C068C468201DFEF7BDFC1048EA
:103D00000068401E0E49086012480068401E1149B4
:103D1000086001F0E7FA2046FFF7D1FA0D481BE0F2
:103D200048000020640100206000002004ED00E055
:103D3000840000206C000020180200206400002095
:103D400058000020F0010020780000205C000020D6
:103D5000040200205400002000680028C7D110BDD4
:103D6000FE4908687047FFF7FBFF054600BFFFF7F5
:103D7000F7FF401BB0F57A7F0AD3F948006808B90D
:103D8000012000E00020F6490860FFF7E9FF054642
:103D9000FFF7ABFFF3480068012807D94FF08050C8
:103DA000F1490860BFF34F8FBFF36F8FFFF781FFBB
:103DB0000446022C0BD3FFF7BCFCFFF77AFF044646
:103DC000022C02D3204601F0B3FAFFF7C5FBCEE781
:103DD0001CB5E64800210B468022CDE90010E4A185
:103DE000E548FFF73CFA0446012C02D101F02CF91A
:103DF0000446012C14D100BFBF2080F31188BFF30B
:103E00004F8FBFF36F8F00BF4FF0FF30DB4908606B
:103E10000120DB4908600020D049086001F03DFA2C
:103E2000D84800681CBD10B500BFBF2080F31188C2
:103E3000BFF34F8FBFF36F8F00BF0020D0490860E2
:103E400001F040FA10BD0021C44A10687047CE4806
:103E500000687047014611B9CC48006800E0084688
:103E6000024602F1340070470246002101E0521C74
:103E7000491C1078A528FAD0890888B270472DE926
:103E8000F04107460C4690461E4617B9BF480068E9
:103E900000E038460546256005F134006060E86AB8
:103EA0002061286BE061686CA060E86C60610020B4
:103EB000A061052E12D0B5480068854202D10020CD
:103EC00020730FE02673032E0CD1FFF732FCA86A93
:103ED00008B102202073FFF73FFB03E02846FFF7FD
:103EE0007BFC2073B8F1000F04D0286BFFF7BCFFF8
:103EF000208401E000202084BDE8F0812DE9F04716
:103F000007460C4690460026206848B32046416884
:103F10004968416000F1080142688A4202D1416863
:103F2000496841604168D1F80C9000BF2046416863
:103F30004968416000F1080142688A4202D1416843
:103F4000496841604168CD6806EBC60007EB800117
:103F5000434601222846FFF792FF761C4D45E5D1E6
:103F60003046BDE8F0872DE9F04105468846164603
:103F700000240527FFF7DDFB83480068804539D31F
:103F800000BF7F1E07EB8702764B03EB820104EB39
:103F9000C40205EB82000122FFF7B0FF0444002FAA
:103FA000EFD104EBC40105EB8100022278490968D6
:103FB000FFF7A4FF044404EBC40105EB81000222D7
:103FC00074490968FFF79AFF044404EBC40105EB48
:103FD000810004227049FFF791FF044404EBC401FF
:103FE00005EB810003226D49FFF788FF04440EB101
:103FF00000203060FFF7B0FA2046BDE8F081574955
:1040000009680144554A1160704770B50446FFF7CE
:1040100090FB63480068204461490860FFF79CFA00
:104020000546284670BD70B505460C4657480168E0
:1040300018312846FEF706FB01212046FFF727FB33
:1040400070BD70B504460D46164645F000404F4918
:104050000968886160684D490968C8614B49826890
:1040600009680A62494909681831826851604749FC
:10407000096818318160454909688C622168491CCA
:10408000216001213046FFF702FB70BD70B5044688
:104090000E46154660683D490968C8613B4982681B
:1040A00009680A62394909681831826851603749DC
:1040B000096818318160354909688C622168491C9A
:1040C00021600DB14FF0FF3629463046FFF7DFFA89
:1040D00070BD70B50646F068C468A06AD4E90712DE
:1040E0008A60D4E907214A6004F1180142688A42D3
:1040F00001D1216A41600022A2620168491E01606B
:1041000028480068002868D16069D4E902128A60F2
:10411000D4E902214A60211D42688A4201D1E16846
:104120004160002262610168491E016094F82C1010
:10413000012088401C49096808431B490860E16A5E
:1041400001EB8101074A02EB81014868A0608268A7
:10415000E260211D82685160816027E05C000020E0
:10416000B40122426401002004ED00E07C00002044
:1041700049444C4500000000673D000878000020DD
:10418000640000208000002058000020480000202B
:104190004C000020500000200402002018020020E3
:1041A000680000208400002060000020E16A01EB2C
:1041B0008101FB4A02EB81026261E16A01EB81014C
:1041C000F74A52F82110491CE26A02EB8202F44BD2
:1041D00043F82210FFF77CF810E0F2494868E061EC
:1041E0008268226204F11801826851608160ED4AA0
:1041F000A26211460968491C116000BFEA49E06AE1
:104200000968C96A884204D901250120E749086084
:1042100000E00025284670BD70B505460E4646F004
:1042200000402860EC682869D5E901219160D5E952
:10423000011251604168A94201D1A9684160002181
:1042400029610168491E0160FFF742F86069D4E9FD
:1042500002128A60D4E902214A60211D42688A4222
:1042600001D1E1684160002262610168491E01607C
:1042700094F82C1001208840CD4909680843CC49A6
:104280000860E16A01EB8101C54A02EB81014868DF
:10429000A0608268E260211D826851608160E16AED
:1042A00001EB8101BE4A02EB81026261E16A01EB2E
:1042B0008101BB4A52F82110491CE26A02EB8202DA
:1042C000B74B43F82210B849E06A0968C96A8842C6
:1042D00002D90120B549086070BD10B5044600F050
:1042E000F2FFB44800682060B3480068606000F0E6
:1042F000F9FF10BDAF4909680160AF490968416025
:10430000704770B506460C4600F0DDFFAA4802680B
:104310007068131A2068401C08B9002519E0A549E7
:1043200030680968884206D07068904203D8012539
:10433000002020600DE02068984207D92068C01A4C
:1043400020603046FFF7D6FF002502E00020206005
:10435000012500F0C7FF284670BD01209349086081
:104360007047014611B10A46906C00E0002070478A
:1043700008B102469164704701210120894A126800
:104380000AB1002011E0894A12680AB100200CE04D
:104390008A4A12680AB1002007E0894A1368894AEC
:1043A0001268521E934200D1022070477E4908686D
:1043B00070478549096809B9012005E08349096802
:1043C00009B9022000E00020704770B505462C4670
:1043D0000026002D67D07449E06A0968C96A8842DE
:1043E0005AD2A06900F0004028B96F480068C06A3E
:1043F000C0F10500A061E16A01EB8101684A02EBAE
:1044000081016069884201D1012000E00020E0B311
:10441000201DFEF731F940B994F82C100120884096
:10442000634909688143624801605F480068C06A67
:10443000E06294F82C10012088405D490968084327
:104440005B490860E16A01EB8101554A02EB810199
:104450004868A0608268E260211D826851608160C6
:10446000E16A01EB81014E4A02EB81026261E16A7D
:1044700001EB81014A4A52F82110491CE26A02EB21
:104480008202474B43F8221004E0FFE746480068E9
:10449000C06AE062012606E04349E06C0968C96A27
:1044A000884200D20126304670BD70B505462C46C4
:1044B0000026002D48D0206D401E2065E16CE06A8A
:1044C000884241D0206D00283ED1201DFEF7D4F84F
:1044D00040B994F82C10012088403549096881437F
:1044E00033480160E06CE062E06AC0F10500A06161
:1044F00094F82C10012088402D49096808432C4964
:104500000860E16A01EB8101254A02EB81014868FC
:10451000A0608268E260211D826851608160E16A6A
:1045200001EB81011E4A02EB81026261E16A01EB4B
:1045300081011B4A52F82110491CE26A02EB8202F7
:10454000174B43F822100126304670BD2DE9F04785
:1045500006460F4634464FF00109002E73D0E06C3A
:10456000B84201D23D4600E0E56CE06AA8426AD05C
:10457000206D012867D1D4F82C80E562A06900F095
:10458000004010B9C5F10500A06108EB8801044A9C
:1045900002EB8101606988421AD1012019E0000014
:1045A00064010020F0010020480000206C00002081
:1045B00060000020700000205C00002068000020E7
:1045C0001802002058000020640000208400002011
:1045D0000020C0B3201DFEF74FF840B994F82C100E
:1045E00001208840FE4909688143FD48016094F834
:1045F0002C1001208840FA4909680843F8490860EE
:10460000E16A01EB8101F74A02EB81014868A06091
:104610008268E260211D826851608160E16A01EB7D
:104620008101F04A02EB81026261E16A01EB8101E2
:10463000EC4A52F82110491CE26A02EB8202E94B73
:1046400043F8221000BFBDE8F08770B505460E465E
:104650003146284601F001FD284601F022FD0446BE
:1046600002E020202855641C0F2CFAD30020285586
:10467000281970BD2DE9F041064600203070DA4857
:1046800007680146096801EBC101880000F05FFF7F
:104690000546002D3AD0002239462846FFF763FC34
:1046A000074600242DE004EBC40005EB8000007BEE
:1046B000062813D2DFE800F00306090C0F134FF0B1
:1046C00058080FE04FF052080CE04FF0420809E0A4
:1046D0004FF0530806E04FF0440803E000BF4FF0EE
:1046E000000800BF00BF04EBC40005EB8000416878
:1046F0003046FFF7AAFF0646304601F0D2FC0644DA
:10470000641CBC42CFD3284600F093FFBDE8F08183
:10471000B64909688869B5490968C96AC1F10501DE
:10472000B24A126891617047B048006830B1AF4931
:10473000096801F15000096D491C0160AB4800682F
:1047400070472DE9F04104460F46164600F0BBFDC8
:10475000A6480068543050F8240080B90121A348CD
:1047600000685830015556B13046FEF790FF4FF0C3
:1047700080509F490860BFF34F8FBFF36F8F00F0E9
:10478000B1FD00F0A0FD99480068543050F8245065
:104790006DB137B1002195480068543040F82410BD
:1047A00005E0681E91490968543141F82400002150
:1047B0008E4800685830015500F094FD2846BDE849
:1047C000F0812DE9F04704460F4690461D46DDF87E
:1047D000209000F078FD854800685830005D022880
:1047E0001AD082490968543101EB84000168B94349
:1047F000016001217D48006858300155B9F1000F72
:104800000AD04846FEF743FF4FF0805078490860D1
:10481000BFF34F8FBFF36F8F00F064FD00F053FDC7
:104820002DB172480068543050F8240028606F4859
:1048300000685830005D022801D0002609E06B496D
:104840000968543101EB8400016821EA0801016024
:1048500001260021654800685830015500F042FDEE
:104860003046BDE8F0872DE9F05F81460D461646DB
:104870001F46DDF828A04FF0010B4C4600F023FD49
:10488000BAF1000F05D004F1540050F82500CAF821
:10489000000004F1580010F8058002214155052F51
:1048A00029D2DFE807F027030D171C0004F154009C
:1048B00050F82500304304F1540141F825001BE075
:1048C00004F1540050F82500401C04F1540141F853
:1048D000250011E004F1540040F825600CE0B8F127
:1048E000020F04D004F1540040F8256001E04FF0BD
:1048F000000B01E000E000BF00BFB8F1010F4CD198
:104900006069D4E902128A60D4E902214A60211D5B
:1049100042688A4201D1E168416000226261016817
:10492000491E016094F82C10012088402C49096828
:1049300008432B490860E16A01EB8101294A02EB37
:1049400081014868A0608268E260211D8268516030
:104950008160E16A01EB8101224A02EB810262611E
:10496000E16A01EB81011F4A52F82110491CE26AF9
:1049700002EB82021B4B43F82210FEF7A9FC1B49F5
:10498000E06A0968C96A884207D94FF0805018491F
:104990000860BFF34F8FBFF36F8F00F0A3FC584642
:1049A000BDE8F09F2DE9F04F05460C46DDE90967AB
:1049B0004FF00109294600BF4FF0BF0AEFF3118005
:1049C0008AF31188BFF34F8FBFF36F8F00BF80460C
:1049D00026B101F1540050F8240030600AE00000D4
:1049E00060000020640100205800002048000020E2
:1049F00004ED00E001F1580010F804C04FF0020A85
:104A000000F804A0052B29D2DFE803F027030D17D7
:104A10001C0001F1540050F82400104301F1540A25
:104A20004AF824001BE001F1540050F82400401C17
:104A300001F1540A4AF8240011E001F1540040F851
:104A400024200CE0BCF1020F04D001F1540040F826
:104A5000242001E04FF0000901E000E000BF00BFAA
:104A6000BCF1010F7ED1B848006800285FD14869C9
:104A7000D1E902ABCAF808B0D1E902BACAF804B069
:104A800001F1040AD0F804B0D34503D1D1F80CA049
:104A9000C0F804A04FF0000BC1F814B0D0F800A08B
:104AA000AAF1010AC0F800A091F82CA0012000FA98
:104AB0000AF0DFF898A2DAF800A040EA0A00DFF86E
:104AC0008CA2CAF80000D1F82CA00AEB8A0ADFF801
:104AD00080B20BEB8A0ADAF804008860D0F808B0DC
:104AE000C1F80CB001F1040AD0F808B0CBF804A06A
:104AF000C0F808A0D1F82CA00AEB8A0ADFF850B25F
:104B00000BEB8A0BC1F814B0D1F82CA00AEB8A0A7F
:104B1000DFF83CB25BF82AA00AF1010AD1F82CB008
:104B20000BEB8B0BDFF828E24EF82BA01EE0DFF832
:104B300024A2DAF80400C861D0F808B0C1F820B0A7
:104B400001F1180AD0F808B0CBF804A0C0F808A00A
:104B5000DFF800B2C1F828B0DA46DAF800A00AF1AE
:104B6000010A00E013E0CBF800A000BFDFF8E8A1E5
:104B7000C86ADAF800A0DAF82CA0504507D90FB1BE
:104B8000012038600120DFF8D4A1CAF8000000BF7E
:104B900088F3118800BF4846BDE8F08F2DE9F04149
:104BA00003461446184600BFBF27EFF3118287F370
:104BB0001188BFF34F8FBFF36F8F00BF154600F111
:104BC0005802565C02275754121F52F82120521CDB
:104BD00000F1540747F82120012E74D15A4A126877
:104BE000002A4CD14269D0E9027CC7F808C0D0E95C
:104BF00002C7C7F804C0071DD2F804C0BC4501D1E4
:104C0000C76857604FF0000CC0F814C017687F1ECB
:104C1000176090F82C700122BA404C4F3F683A431D
:104C20004A4F3A60C76A07EB8707DFF824C10CEBED
:104C300087077A688260D2F808C0C0F80CC0071DE8
:104C4000D2F808C0CCF804709760C76A07EB8707F2
:104C5000DFF8FCC00CEB870CC0F814C0C76A07EB88
:104C60008707DFF8ECC05CF827707F1CD0F82CC0F9
:104C70000CEB8C0CDFF8D88048F82C7017E0354F1F
:104C80007A68C261D2F808C0C0F820C000F11807E5
:104C9000D2F808C0CCF804709760DFF8B8C0C0F84C
:104CA00028C067463F687F1CCCF8007000BF2A4FC1
:104CB000C26A3F68FF6ABA4205D90CB1012222607C
:104CC0000122264F3A6000BF85F3118800BFBDE87E
:104CD000F0812DE9F04106460C4616B91E480068E1
:104CE00000E03046074600F0EEFA07F15800005D9C
:104CF000022805D1002107F158000155012500E0E7
:104D0000002500F0EFFA2846BDE8F0812DE9F041DA
:104D100006460C46174616B90F48006800E03046B4
:104D2000054600F0D0FA05F1540050F8248050F800
:104D30002400B84305F1540141F8240000F0D2FAF0
:104D40004046BDE8F08170478400002060000020EC
:104D500064010020F0010020480000206C000020C9
:104D60002DE9F04104460D4616461F464FF0000857
:104D700065602461B5420CD8F01BA169884202D35A
:104D80004FF0010811E0211DF9480068FDF75AFCB9
:104D90000BE0BE4204D2BD4202D34FF0010804E052
:104DA000211DF4480068FDF74DFC4046BDE8F08148
:104DB00070B504460D46164604E0A0690544204639
:104DC000216A8847A06941192B4632462046FFF7E1
:104DD000C7FF0028F1D170BD70B505460E46E54805
:104DE0000068C068C468201DFDF746FC94F82800E0
:104DF00000F0040028B1324629462046FFF7D8FFCC
:104E000005E094F8280000F0FE0084F82800204611
:104E1000216A884770BD70B508E0D6480068C06850
:104E200004684FF0FF312046FFF7D6FFD1480068F5
:104E3000006808B9012000E000200028EDD0CD482E
:104E40000568CB480068CB490860C948056070BD5B
:104E500070B50446FEF784FF0546C74800688542E2
:104E600004D2FFF7D8FF0120206001E0002020607D
:104E7000C1480560284670BD7FB56EE001980028E6
:104E80006BDB039C606908B9012000E0002010B9C9
:104E9000201DFDF7F1FB6846FFF7DAFF0546019894
:104EA0000A2858D2DFE800F05705072E36470608D3
:104EB0002F3700BF00BF00BF94F8280040F001006A
:104EC00084F828000298A269811803462A462046E1
:104ED000FFF746FFA8B194F8280000F0040038B1AD
:104EE0000298A26981182A462046FFF761FF05E073
:104EF00094F8280000F0FE0084F828002046216A7B
:104F0000884729E000BF94F8280000F0FE0084F8EC
:104F1000280021E000BF94F8280040F0010084F848
:104F200028000298A061A06941192B462A46204614
:104F3000FFF716FF10E094F8280000F0020018B9FF
:104F4000204600F076FB05E094F8280000F0FE0013
:104F500084F8280000E000BF00BF002201A98748B4
:104F60000068FDF7D6FE002888D17FBDF8B505465C
:104F70000C46FEF7DEFB6846FFF76AFF0646009820
:104F800020BB44B9B54206D8FEF7E6FA31462846BA
:104F9000FFF722FF1CE03CB175480068006808B9C3
:104FA000012000E000200446A91B22467348006847
:104FB000FEF758F8FEF7D0FA50B94FF0805070491C
:104FC0000860BFF34F8FBFF36F8F01E0FEF7C4FAA5
:104FD000F8BD0146674A126812680AB9012200E06A
:104FE00000220A600A6822B9624A1268D268106810
:104FF00000E00020704708B500BF6846FFF7E9FFF2
:10500000044620460099FFF7B1FFFFF735FFF4E7AC
:1050100010B500F058F95948006890B95948FDF7A3
:10502000F5FA5948FDF7F2FA5648524908605648D1
:105030004F49086000220C210520FDF794FB4F49E1
:10504000086000F04FF910BD1CB50024FFF7E0FF29
:105050004A48006850B14D48042100234022CDE960
:1050600000104BA14C48FEF7FAF8044620461CBD40
:105070002DE9F04705460E4617469846DDE90894A7
:10508000FFF7C6FF2560A661C4F81C80C4F8209015
:10509000201DFDF7C8FA2FB194F8280040F0040055
:1050A00084F82800BDE8F0872DE9FC4705460E4648
:1050B00017469846DDF828902C2000F048FA044660
:1050C00054B1002084F8280043463A463146284629
:1050D000CDE90094FFF7CCFF2046BDE8FC872DE921
:1050E000FE4305460C4616461F46DDF828804FF065
:1050F00000092248006810B3009401960295062C1E
:1051000015DAFFF756F9022808D10023424669460E
:105110001A480068FDF7DAFB814610E000231A46C2
:10512000694616480068FDF7D1FB814607E0002379
:105130003A46694611480068FDF755FD81464846E4
:10514000BDE8FE8311480068704701460A46906931
:10515000704770B506460D46344600F0B4F8EDB120
:1051600094F8280040F0040084F828001CE00000B7
:105170008C00002088000020980000209000002073
:1051800004ED00E02C0200204002002094000020EA
:10519000546D722053766300F74F000894F828008E
:1051A00000F0FB0084F8280000F09CF870BD70B59A
:1051B0000446264600F087F896F8280000F0040020
:1051C00008B9002500E0012500F08CF8284670BDE4
:1051D00001460A465068704701460A461068704703
:1051E00070B50446264600F06EF896F8280000F0E8
:1051F000010008B9002500E0012500F073F82846F9
:1052000070BD70B50446264600F05DF8F56900F003
:1052100069F8284670BD70B504460D46264600F074
:1052200052F8F56100F05EF870BD0146486A7047BB
:105230004162704700BFBF2080F31188BFF34F8FDA
:10524000BFF36F8F00BF00BFFEE7001F4FF08073FA
:105250000360001F21F001030360001F844B036003
:105260001438026020387047824883490860084635
:1052700000686FF07F41B1FBF0F0804908602D209D
:105280007F49086000204FF0E0210861886179487B
:10529000401E486107200861704710B579480068D2
:1052A00040F47F00774908600846006840F07F407E
:1052B0000860FFF7D9FF002073490860FAF7ACFFD8
:1052C000002010BD704700BFBF2080F31188BFF3DE
:1052D0004F8FBFF36F8F00BF6B480068401C6A4957
:1052E0000860704768480068401E674908600846C3
:1052F000006820B9002080F3118800BF00BF70470C
:1053000010B500BFBF2080F31188BFF34F8FBFF3EC
:105310006F8F00BFFEF747F820B14FF0805059491A
:105320001C39086000BF002080F3118800BF10BD49
:105330002DE9F041044651480068844201D94F48A4
:1053400004684FF0E020006920F001004FF0E021F8
:10535000086108468169601E474A126802FB001511
:1053600047480068854202D9454800682D1A72B640
:10537000BFF34F8FBFF36F8FFEF7FEFF80B94FF083
:10538000E02080694FF0E02148610846006940F064
:105390000100086138480068401E486162B665E057
:1053A0004FF0E020456100204FF0E0218861084681
:1053B000006940F001000861A046B8F1000F04D078
:1053C000BFF34F8F30BFBFF36F8F62B6BFF34F8F06
:1053D000BFF36F8F72B6BFF34F8FBFF36F8F06208F
:1053E0004FF0E02108610846006900F48030B8B150
:1053F00021490968491E4FF0E0229269AA1A881AC9
:105400001F490968884203D31B490968884202D9A9
:1054100019490968481E4FF0E0214861661E12E0F4
:105420001548006860434FF0E0218969471A124827
:105430000068B7FBF0F6701C0F4909684843C01BB1
:105440004FF0E021486100204FF0E02188610846DC
:10545000006940F0010008613046FEF7D0FD0648C3
:105460000068401E4FF0E021486162B6BDE8F0815F
:105470003552000840190100A0000020A4000020BF
:10548000A800002020ED00E09C00002010B501469F
:10549000984800E0006803688B42FBD302464368EB
:1054A00013448B4204D143684C6823444360014653
:1054B0000A464B6813440468A34211D18E4C03681A
:1054C0002468A34208D04B680468646823444B6096
:1054D00003681B680B6005E0874B1B680B6001E0ED
:1054E00003680B60884200D0016010BD30B54FF4F6
:1054F0008843824800F007042CB1C01D20F007004B
:105500007E4C041B1B1B02467A4C22600024794D02
:105510006C60D018083820F00700774C2060002419
:10552000754D2D686C60744D2D682C601146441AC1
:105530004C60714C24680C60714D4C682C60714D4E
:105540004C682C604FF000446F4D2C6030BD2DE94D
:10555000F04104464FF00008FEF7EBF8664800689B
:1055600008B9FFF7C3FF68480068204000285BD1F6
:10557000B4B104F10800A04212D9083404F00700C5
:1055800078B104F00700C0F108002044A04205D91A
:1055900004F00700C0F10800044402E0002400E029
:1055A0000024002C40D05748006884423CD8514E1B
:1055B0003046056801E02E462D686868A04202D298
:1055C00028680028F7D14C48006885422CD0306804
:1055D00000F10808286830606868001B102807D9A7
:1055E0002F196868001B78606C603846FFF74EFF23
:1055F000444968680968081A424908600846006812
:105600003F490968884203D23E4800683C49086027
:105610003D496868096808436860002028603B4885
:105620000068401C39490860FDF796FF4046BDE818
:10563000F08170B506463546FEB1083D2C4632492C
:10564000606809680840C0B12068B0B92E49606838
:10565000096888436060FEF76CF82A496068096849
:105660000844284908602046FFF710FF28480068D2
:10567000401C27490860FDF76FFF70BD2148006896
:1056800070471F480068704770472DE9F041044695
:105690004FF000080026771EFEF74BF81548056806
:1056A0007DB100BF08F101086868B04200D96E689A
:1056B0006868B84200D26F682D680F48006885425C
:1056C000F0D1FDF749FF6660A760C4F80C80FFF7D2
:1056D000FAFD0C48006820600C48006860610C48C6
:1056E0000068A061064800682061FFF7FBFDBDE887
:1056F000F0810000AC000020B40000205402002023
:10570000BC000020B8000020C8000020C00000201D
:10571000C400002070B505460E46002400BF05E019
:10572000295DE6A000F000FB601C84B2B442F7DB08
:10573000E4A000F0F9FA70BD2DE9F04105460E46EF
:1057400017464FF000081DB12946DFA000F0ECFA23
:10575000002406E016F804804146D8A000F0E4FAE0
:10576000641CBC42F6DBD7A000F0DEFABDE8F08195
:1057700070B505460B46144600211AE0685C02111C
:10578000092A02DD02F1370001E002F1300003F8DE
:105790001100685C00F00F02092A02DD02F13700F7
:1057A00001E002F13000012606EB41069855481C45
:1057B00081B2A142E2DB002003F8140070BDF8B50D
:1057C00005460E4614460DE0012269462846FFF7BD
:1057D000CFFF00208DF80200684600F005FC207025
:1057E0006D1C641C301EA6F101018EB2ECD1F8BD17
:1057F0002DE9F04106460F4614464FF47A70704387
:105800004FF47A71B0FBF1F81FB94FF0FF30BDE8EB
:10581000F081AE48006810B94FF0FF30F7E742461C
:105820003946AA480068FDF774FA0546012D04D1EF
:105830000CB1092020800020E9E74FF0FF30E6E7B7
:105840002DE9F04106460F4614464FF47A70704336
:105850004FF47A71B0FBF1F81FB94FF0FF30BDE89B
:10586000F0819B48006810B94FF0FF30F7E74246DF
:10587000394697480068FDF74CFA0546012D04D1DA
:105880000CB1092020800020E9E74FF0FF30E6E767
:1058900030B597B005460C46002013901490159033
:1058A0001690092C01D017B030BD224629460DF1C3
:1058B0004F0000F015FC09220DF14F0185A0FFF704
:1058C0003BFF864800788DF84C00844840788DF87E
:1058D0004D00824880788DF84E0081480068401C59
:1058E0007F49086008460068B0F5006F3ADC7D48E3
:1058F000006801900C20ADF8080001208DF8000030
:105900001398CDF80A001498CDF80E001598CDF82C
:10591000120000230A2269466D480068FCF7D6FF92
:1059200001281CD1704801900420ADF80800022025
:105930008DF800006A480068CDF80A0000235A1E5E
:10594000694663480068FCF7C1FF10B967A000F022
:10595000EBF9644800680C306249086002E063A01B
:1059600000F0E2F900BF9EE72DE9F04186B007465E
:10597000884600200590654E042205A95A48FAF78A
:1059800078FE63A0059900F0CFF900251FE00C22F6
:1059900001A93046FAF76DFE294661A000F0C4F96E
:1059A00000240DE0022C05DC01A8015D5FA000F0E1
:1059B000BBF904E001A8015D5EA000F0B5F9641C2C
:1059C0000C2CEFDB3FA000F0AFF90C366D1C0598F6
:1059D0008542DCDB06B0BDE8F0812DE9FC410446E0
:1059E0000F46A21C0721A01CFFF7E9FE002504E0DA
:1059F000615D52A000F098F96D1C092DF8DBE0788C
:105A000000F5FA66207AE179CDE90010A379627990
:105A100021793046FAF7EBFFBDE8FC8170B504460A
:105A20000D461646464800EBC400314642682846FB
:105A3000904770BD9AB00025424A43494348FAF75F
:105A4000AFFD012240214048001FFBF7F9FE3F480F
:105A5000FAF7CBFD002240210520FCF784FE1C490B
:105A600008602AE04FF0FF3201210020FEF769FEB6
:105A7000FBF7E8F90546EDB1294601A8FBF7FFF968
:105A8000002414E02E4951F8340000F00AFB0646C9
:105A90002B4850F83410324601A800F0B2FA28B969
:105AA000E0B22A4601A9FFF7B9FF02E0641C032C0B
:105AB000E8D300BF0A20FDF778FED3E7253032781F
:105AC000200000000D0A000025730000CC0000201B
:105AD000D00000205263763A2000000058010020D8
